{
  "_format": "hh-sol-artifact-1",
  "contractName": "NFTEX",
  "sourceName": "contracts/NFTEX.sol",
  "abi": [
    {
      "inputs": [
        {
          "internalType": "uint16",
          "name": "_feePercent",
          "type": "uint16"
        }
      ],
      "stateMutability": "nonpayable",
      "type": "constructor"
    },
    {
      "anonymous": false,
      "inputs": [
        {
          "indexed": true,
          "internalType": "contract IERC721",
          "name": "token",
          "type": "address"
        },
        {
          "indexed": false,
          "internalType": "uint256",
          "name": "id",
          "type": "uint256"
        },
        {
          "indexed": true,
          "internalType": "bytes32",
          "name": "hash",
          "type": "bytes32"
        },
        {
          "indexed": false,
          "internalType": "address",
          "name": "bidder",
          "type": "address"
        },
        {
          "indexed": false,
          "internalType": "uint256",
          "name": "bidPrice",
          "type": "uint256"
        }
      ],
      "name": "Bid",
      "type": "event"
    },
    {
      "anonymous": false,
      "inputs": [
        {
          "indexed": true,
          "internalType": "contract IERC721",
          "name": "token",
          "type": "address"
        },
        {
          "indexed": false,
          "internalType": "uint256",
          "name": "id",
          "type": "uint256"
        },
        {
          "indexed": true,
          "internalType": "bytes32",
          "name": "hash",
          "type": "bytes32"
        },
        {
          "indexed": false,
          "internalType": "address",
          "name": "seller",
          "type": "address"
        }
      ],
      "name": "CancelOrder",
      "type": "event"
    },
    {
      "anonymous": false,
      "inputs": [
        {
          "indexed": true,
          "internalType": "contract IERC721",
          "name": "token",
          "type": "address"
        },
        {
          "indexed": false,
          "internalType": "uint256",
          "name": "id",
          "type": "uint256"
        },
        {
          "indexed": true,
          "internalType": "bytes32",
          "name": "hash",
          "type": "bytes32"
        },
        {
          "indexed": false,
          "internalType": "address",
          "name": "seller",
          "type": "address"
        },
        {
          "indexed": false,
          "internalType": "address",
          "name": "taker",
          "type": "address"
        },
        {
          "indexed": false,
          "internalType": "uint256",
          "name": "price",
          "type": "uint256"
        }
      ],
      "name": "Claim",
      "type": "event"
    },
    {
      "anonymous": false,
      "inputs": [
        {
          "indexed": true,
          "internalType": "contract IERC721",
          "name": "token",
          "type": "address"
        },
        {
          "indexed": false,
          "internalType": "uint256",
          "name": "id",
          "type": "uint256"
        },
        {
          "indexed": true,
          "internalType": "bytes32",
          "name": "hash",
          "type": "bytes32"
        },
        {
          "indexed": false,
          "internalType": "address",
          "name": "seller",
          "type": "address"
        }
      ],
      "name": "MakeOrder",
      "type": "event"
    },
    {
      "anonymous": false,
      "inputs": [
        {
          "indexed": true,
          "internalType": "address",
          "name": "previousOwner",
          "type": "address"
        },
        {
          "indexed": true,
          "internalType": "address",
          "name": "newOwner",
          "type": "address"
        }
      ],
      "name": "OwnershipTransferred",
      "type": "event"
    },
    {
      "inputs": [
        {
          "internalType": "bytes32",
          "name": "_order",
          "type": "bytes32"
        }
      ],
      "name": "bid",
      "outputs": [],
      "stateMutability": "payable",
      "type": "function"
    },
    {
      "inputs": [
        {
          "internalType": "bytes32",
          "name": "_order",
          "type": "bytes32"
        }
      ],
      "name": "buyItNow",
      "outputs": [],
      "stateMutability": "payable",
      "type": "function"
    },
    {
      "inputs": [
        {
          "internalType": "bytes32",
          "name": "_order",
          "type": "bytes32"
        }
      ],
      "name": "cancelOrder",
      "outputs": [],
      "stateMutability": "nonpayable",
      "type": "function"
    },
    {
      "inputs": [
        {
          "internalType": "bytes32",
          "name": "_order",
          "type": "bytes32"
        }
      ],
      "name": "claim",
      "outputs": [],
      "stateMutability": "nonpayable",
      "type": "function"
    },
    {
      "inputs": [
        {
          "internalType": "contract IERC721",
          "name": "_token",
          "type": "address"
        },
        {
          "internalType": "uint256",
          "name": "_id",
          "type": "uint256"
        },
        {
          "internalType": "uint256",
          "name": "_startPrice",
          "type": "uint256"
        },
        {
          "internalType": "uint256",
          "name": "_endPrice",
          "type": "uint256"
        },
        {
          "internalType": "uint256",
          "name": "_endBlock",
          "type": "uint256"
        }
      ],
      "name": "dutchAuction",
      "outputs": [],
      "stateMutability": "nonpayable",
      "type": "function"
    },
    {
      "inputs": [
        {
          "internalType": "contract IERC721",
          "name": "_token",
          "type": "address"
        },
        {
          "internalType": "uint256",
          "name": "_id",
          "type": "uint256"
        },
        {
          "internalType": "uint256",
          "name": "_startPrice",
          "type": "uint256"
        },
        {
          "internalType": "uint256",
          "name": "_endBlock",
          "type": "uint256"
        }
      ],
      "name": "englishAuction",
      "outputs": [],
      "stateMutability": "nonpayable",
      "type": "function"
    },
    {
      "inputs": [],
      "name": "feeAddress",
      "outputs": [
        {
          "internalType": "address",
          "name": "",
          "type": "address"
        }
      ],
      "stateMutability": "view",
      "type": "function"
    },
    {
      "inputs": [],
      "name": "feePercent",
      "outputs": [
        {
          "internalType": "uint16",
          "name": "",
          "type": "uint16"
        }
      ],
      "stateMutability": "view",
      "type": "function"
    },
    {
      "inputs": [
        {
          "internalType": "contract IERC721",
          "name": "_token",
          "type": "address"
        },
        {
          "internalType": "uint256",
          "name": "_id",
          "type": "uint256"
        },
        {
          "internalType": "uint256",
          "name": "_price",
          "type": "uint256"
        },
        {
          "internalType": "uint256",
          "name": "_endBlock",
          "type": "uint256"
        }
      ],
      "name": "fixedPrice",
      "outputs": [],
      "stateMutability": "nonpayable",
      "type": "function"
    },
    {
      "inputs": [
        {
          "internalType": "bytes32",
          "name": "_order",
          "type": "bytes32"
        }
      ],
      "name": "getCurrentPrice",
      "outputs": [
        {
          "internalType": "uint256",
          "name": "",
          "type": "uint256"
        }
      ],
      "stateMutability": "view",
      "type": "function"
    },
    {
      "inputs": [
        {
          "internalType": "address",
          "name": "",
          "type": "address"
        },
        {
          "internalType": "address",
          "name": "",
          "type": "address"
        },
        {
          "internalType": "uint256",
          "name": "",
          "type": "uint256"
        },
        {
          "internalType": "bytes",
          "name": "",
          "type": "bytes"
        }
      ],
      "name": "onERC721Received",
      "outputs": [
        {
          "internalType": "bytes4",
          "name": "",
          "type": "bytes4"
        }
      ],
      "stateMutability": "nonpayable",
      "type": "function"
    },
    {
      "inputs": [
        {
          "internalType": "address",
          "name": "",
          "type": "address"
        },
        {
          "internalType": "uint256",
          "name": "",
          "type": "uint256"
        }
      ],
      "name": "orderIdBySeller",
      "outputs": [
        {
          "internalType": "bytes32",
          "name": "",
          "type": "bytes32"
        }
      ],
      "stateMutability": "view",
      "type": "function"
    },
    {
      "inputs": [
        {
          "internalType": "contract IERC721",
          "name": "",
          "type": "address"
        },
        {
          "internalType": "uint256",
          "name": "",
          "type": "uint256"
        },
        {
          "internalType": "uint256",
          "name": "",
          "type": "uint256"
        }
      ],
      "name": "orderIdByToken",
      "outputs": [
        {
          "internalType": "bytes32",
          "name": "",
          "type": "bytes32"
        }
      ],
      "stateMutability": "view",
      "type": "function"
    },
    {
      "inputs": [
        {
          "internalType": "bytes32",
          "name": "",
          "type": "bytes32"
        }
      ],
      "name": "orderInfo",
      "outputs": [
        {
          "internalType": "uint8",
          "name": "orderType",
          "type": "uint8"
        },
        {
          "internalType": "address",
          "name": "seller",
          "type": "address"
        },
        {
          "internalType": "contract IERC721",
          "name": "token",
          "type": "address"
        },
        {
          "internalType": "uint256",
          "name": "tokenId",
          "type": "uint256"
        },
        {
          "internalType": "uint256",
          "name": "startPrice",
          "type": "uint256"
        },
        {
          "internalType": "uint256",
          "name": "endPrice",
          "type": "uint256"
        },
        {
          "internalType": "uint256",
          "name": "startBlock",
          "type": "uint256"
        },
        {
          "internalType": "uint256",
          "name": "endBlock",
          "type": "uint256"
        },
        {
          "internalType": "uint256",
          "name": "lastBidPrice",
          "type": "uint256"
        },
        {
          "internalType": "address",
          "name": "lastBidder",
          "type": "address"
        },
        {
          "internalType": "bool",
          "name": "isSold",
          "type": "bool"
        }
      ],
      "stateMutability": "view",
      "type": "function"
    },
    {
      "inputs": [],
      "name": "owner",
      "outputs": [
        {
          "internalType": "address",
          "name": "",
          "type": "address"
        }
      ],
      "stateMutability": "view",
      "type": "function"
    },
    {
      "inputs": [],
      "name": "renounceOwnership",
      "outputs": [],
      "stateMutability": "nonpayable",
      "type": "function"
    },
    {
      "inputs": [
        {
          "internalType": "address",
          "name": "_seller",
          "type": "address"
        }
      ],
      "name": "sellerOrderLength",
      "outputs": [
        {
          "internalType": "uint256",
          "name": "",
          "type": "uint256"
        }
      ],
      "stateMutability": "view",
      "type": "function"
    },
    {
      "inputs": [
        {
          "internalType": "address",
          "name": "_feeAddress",
          "type": "address"
        }
      ],
      "name": "setFeeAddress",
      "outputs": [],
      "stateMutability": "nonpayable",
      "type": "function"
    },
    {
      "inputs": [
        {
          "internalType": "contract IERC721",
          "name": "_token",
          "type": "address"
        },
        {
          "internalType": "uint256",
          "name": "_id",
          "type": "uint256"
        }
      ],
      "name": "tokenOrderLength",
      "outputs": [
        {
          "internalType": "uint256",
          "name": "",
          "type": "uint256"
        }
      ],
      "stateMutability": "view",
      "type": "function"
    },
    {
      "inputs": [
        {
          "internalType": "address",
          "name": "newOwner",
          "type": "address"
        }
      ],
      "name": "transferOwnership",
      "outputs": [],
      "stateMutability": "nonpayable",
      "type": "function"
    },
    {
      "inputs": [
        {
          "internalType": "uint16",
          "name": "_percent",
          "type": "uint16"
        }
      ],
      "name": "updateFeePercent",
      "outputs": [],
      "stateMutability": "nonpayable",
      "type": "function"
    }
  ],
  "bytecode": "0x608060405234801561001057600080fd5b50604051611ae5380380611ae583398101604081905261002f916100fd565b600080546001600160a01b031916339081178255604051909182917f8be0079c531659141344cd1fd0a4f28419497f9722a3daafe3b4186f6b6457e0908290a3506127108161ffff1611156100ca5760405162461bcd60e51b815260206004820152601d60248201527f696e7075742076616c7565206973206d6f7265207468616e2031303025000000604482015260640160405180910390fd5b600480546001600160b01b0319163361ffff60a01b191617600160a01b61ffff9390931692909202919091179055610126565b60006020828403121561010e578081fd5b815161ffff8116811461011f578182fd5b9392505050565b6119b0806101356000396000f3fe6080604052600436106100fa5760003560e01c806308745c98146100ff578063093dff7d14610132578063150b7a0214610154578063161e444e1461019857806319daa108146101b8578063238e203f146101fb578063275e086c146102e75780634127535814610307578063715018a61461033f5780637489ec23146103545780637fd6f15c146103745780638035eb5c146103a95780638705fcd4146103c95780638aae982a146103e95780638ba39adb1461041f5780638da5cb5b14610432578063957bb1e014610447578063a04a86bd1461045a578063bd66528a1461047a578063f2fde38b1461049a578063f4dae74c146104ba575b600080fd5b34801561010b57600080fd5b5061011f61011a36600461161e565b6104da565b6040519081526020015b60405180910390f35b34801561013e57600080fd5b5061015261014d3660046116cf565b61050b565b005b34801561016057600080fd5b5061017f61016f366004611546565b630a85bd0160e11b949350505050565b6040516001600160e01b03199091168152602001610129565b3480156101a457600080fd5b5061011f6101b3366004611649565b610588565b3480156101c457600080fd5b5061011f6101d336600461161e565b6001600160a01b03919091166000908152600160209081526040808320938352929052205490565b34801561020757600080fd5b5061027f610216366004611649565b600360208190526000918252604090912080546001820154600283015493830154600484015460058501546006860154600787015460089097015460ff808816996001600160a01b036101009099048916999789169890979290811691600160a01b909104168b565b6040805160ff909c168c526001600160a01b039a8b1660208d0152988a16988b019890985260608a0196909652608089019490945260a088019290925260c087015260e086015261010085015291909116610120830152151561014082015261016001610129565b3480156102f357600080fd5b5061011f610302366004611661565b61063d565b34801561031357600080fd5b50600454610327906001600160a01b031681565b6040516001600160a01b039091168152602001610129565b34801561034b57600080fd5b5061015261067b565b34801561036057600080fd5b5061015261036f366004611649565b6106e2565b34801561038057600080fd5b5060045461039690600160a01b900461ffff1681565b60405161ffff9091168152602001610129565b3480156103b557600080fd5b506101526103c4366004611695565b61084c565b3480156103d557600080fd5b506101526103e4366004611523565b610862565b3480156103f557600080fd5b5061011f610404366004611523565b6001600160a01b031660009081526002602052604090205490565b61015261042d366004611649565b6108b3565b34801561043e57600080fd5b50610327610b51565b610152610455366004611649565b610b60565b34801561046657600080fd5b50610152610475366004611712565b610d9a565b34801561048657600080fd5b50610152610495366004611649565b610e41565b3480156104a657600080fd5b506101526104b5366004611523565b6110be565b3480156104c657600080fd5b506101526104d5366004611695565b61119b565b600260205281600052604060002081815481106104f657600080fd5b90600052602060002001600091509150505481565b8183116105725760405162461bcd60e51b815260206004820152602a60248201527f456e642070726963652073686f756c64206265206c6f776572207468616e20736044820152697461727420707269636560b01b60648201526084015b60405180910390fd5b610581600186868686866111a7565b5050505050565b6000818152600360205260408120805460ff16806105ac5750600301549050610638565b8060ff16600214156105d957600782015480156105c957806105cf565b82600301545b9350505050610638565b6003820154600583015460068401546000906105f69083906118df565b600486015461060590856118df565b61060f91906118a0565b90508061061c83436118df565b61062691906118c0565b61063090846118df565b955050505050505b919050565b6001602052826000526040600020602052816000526040600020818154811061066557600080fd5b9060005260206000200160009250925050505481565b33610684610b51565b6001600160a01b0316146106aa5760405162461bcd60e51b81526004016105699061177f565b600080546040516001600160a01b039091169060008051602061195b833981519152908390a3600080546001600160a01b0319169055565b6000818152600360205260409020805461010090046001600160a01b0316331461071e5760405162461bcd60e51b8152600401610569906117dc565b6007810154156107605760405162461bcd60e51b815260206004820152600d60248201526c109a59191a5b99c8195e1a5cdd609a1b6044820152606401610569565b6008810154600160a01b900460ff161561078c5760405162461bcd60e51b815260040161056990611803565b6001810154600282015460006006840155604051632142170760e11b81526001600160a01b039092169182906342842e0e906107d090309033908690600401611734565b600060405180830381600087803b1580156107ea57600080fd5b505af11580156107fe573d6000803e3d6000fd5b5050505083826001600160a01b03167f856ac238bc6f4bb0c966003f34f148bf0ef3b60f266e451474de23ff78196c8b833360405161083e92919061184c565b60405180910390a350505050565b61085c60008585856000866111a7565b50505050565b3361086b610b51565b6001600160a01b0316146108915760405162461bcd60e51b81526004016105699061177f565b600480546001600160a01b0319166001600160a01b0392909216919091179055565b60008181526003602052604090206006810154806108e35760405162461bcd60e51b8152600401610569906117b4565b4381116109025760405162461bcd60e51b815260040161056990611829565b8154600260ff909116106109515760405162461bcd60e51b815260206004820152601660248201527524ba13b990309022b733b634b9b41020bab1ba34b7b760511b6044820152606401610569565b6008820154600160a01b900460ff161561097d5760405162461bcd60e51b815260040161056990611803565b600061098884610588565b9050803410156109c85760405162461bcd60e51b815260206004820152600b60248201526a383934b1b29032b93937b960a91b6044820152606401610569565b60088301805460ff60a01b1916600160a01b908117909155600454600091612710916109fa9161ffff910416846118c0565b610a0491906118a0565b845490915061010090046001600160a01b03166108fc610a2483856118df565b6040518115909202916000818181858888f150506004546040516001600160a01b03909116935084156108fc0292508491506000818181858888f193505050505081341115610a9357336108fc610a7b84346118df565b6040518115909202916000818181858888f150505050505b60018401546002850154604051632142170760e11b81526001600160a01b03909216916342842e0e91610acc9130913391600401611734565b600060405180830381600087803b158015610ae657600080fd5b505af1158015610afa573d6000803e3d6000fd5b5050505060018401546002850154855460405188936001600160a01b039081169360008051602061193b83398151915293610b42939192610100909104169033908990611863565b60405180910390a35050505050565b6000546001600160a01b031690565b600081815260036020526040902060068101546007820154600883015483546001600160a01b039091169060ff16600214610bd85760405162461bcd60e51b815260206004820152601860248201527737b7363c903337b91022b733b634b9b41020bab1ba34b7b760411b6044820152606401610569565b82610bf55760405162461bcd60e51b8152600401610569906117b4565b82431115610c155760405162461bcd60e51b815260040161056990611829565b835461010090046001600160a01b0316331415610c705760405162461bcd60e51b815260206004820152601960248201527821b0b7103737ba103134b2103a37903cb7bab91037b93232b960391b6044820152606401610569565b8115610caf57610c816014836118a0565b610c8b9083611888565b341015610caa5760405162461bcd60e51b815260040161056990611758565b610cdf565b83600301543410158015610cc35750600034115b610cdf5760405162461bcd60e51b815260040161056990611758565b610cea6014846118df565b431115610d0257610cfc836014611888565b60068501555b6008840180546001600160a01b031916331790553460078501558115610d48576040516001600160a01b0382169083156108fc029084906000818181858888f150505050505b6001840154600285015460408051918252336020830152349082015286916001600160a01b0316907f7f99059564a74b5d2e3fbf994dec403ab0af5688c9a4e86ca2a933688eaf223b90606001610b42565b33610da3610b51565b6001600160a01b031614610dc95760405162461bcd60e51b81526004016105699061177f565b6127108161ffff161115610e1f5760405162461bcd60e51b815260206004820152601d60248201527f696e7075742076616c7565206973206d6f7265207468616e20313030250000006044820152606401610569565b6004805461ffff909216600160a01b0261ffff60a01b19909216919091179055565b6000818152600360205260409020805460088201546001600160a01b0361010090920482169181169060ff600160a01b9091041615610e925760405162461bcd60e51b815260040161056990611803565b6001600160a01b038216331480610eb157506001600160a01b03811633145b610ecd5760405162461bcd60e51b8152600401610569906117dc565b825460ff16600214610f2d5760405162461bcd60e51b8152602060048201526024808201527f546869732066756e6374696f6e20697320666f7220456e676c697368204175636044820152633a34b7b760e11b6064820152608401610569565b82600601544311610f6a5760405162461bcd60e51b8152602060048201526007602482015266139bdd081e595d60ca1b6044820152606401610569565b6001830154600284015460078501546004546001600160a01b039093169260009061271090610fa490600160a01b900461ffff16846118c0565b610fae91906118a0565b60088801805460ff60a01b1916600160a01b17905590506001600160a01b0386166108fc610fdc83856118df565b6040518115909202916000818181858888f150506004546040516001600160a01b03909116935084156108fc0292508491506000818181858888f15050604051632142170760e11b81526001600160a01b03881693506342842e0e925061104c9150309089908890600401611734565b600060405180830381600087803b15801561106657600080fd5b505af115801561107a573d6000803e3d6000fd5b5050505087846001600160a01b031660008051602061193b833981519152858989876040516110ac9493929190611863565b60405180910390a35050505050505050565b336110c7610b51565b6001600160a01b0316146110ed5760405162461bcd60e51b81526004016105699061177f565b6001600160a01b0381166111525760405162461bcd60e51b815260206004820152602660248201527f4f776e61626c653a206e6577206f776e657220697320746865207a65726f206160448201526564647265737360d01b6064820152608401610569565b600080546040516001600160a01b038085169392169160008051602061195b83398151915291a3600080546001600160a01b0319166001600160a01b0392909216919091179055565b61085c60028585856000865b4381116111f65760405162461bcd60e51b815260206004820152601f60248201527f4475726174696f6e206d757374206265206d6f7265207468616e207a65726f006044820152606401610569565b60408051436020808301919091526001600160601b0319606089811b8216848601526054840189905233901b16607483015282518083036068018152608890920190925280519101206040518061016001604052808860ff168152602001336001600160a01b03168152602001876001600160a01b031681526020018681526020018581526020018481526020014381526020018381526020016000815260200160006001600160a01b03168152602001600015158152506003600083815260200190815260200160002060008201518160000160006101000a81548160ff021916908360ff16021790555060208201518160000160016101000a8154816001600160a01b0302191690836001600160a01b0316021790555060408201518160010160006101000a8154816001600160a01b0302191690836001600160a01b03160217905550606082015181600201556080820151816003015560a0820151816004015560c0820151816005015560e0820151816006015561010082015181600701556101208201518160080160006101000a8154816001600160a01b0302191690836001600160a01b031602179055506101408201518160080160146101000a81548160ff02191690831515021790555090505060016000876001600160a01b03166001600160a01b03168152602001908152602001600020600086815260200190815260200160002081908060018154018082558091505060019003906000526020600020016000909190919091505560026000336001600160a01b03166001600160a01b03168152602001908152602001600020819080600181540180825580915050600190039060005260206000200160009091909190915055856001600160a01b03166342842e0e3330886040518463ffffffff1660e01b81526004016114a493929190611734565b600060405180830381600087803b1580156114be57600080fd5b505af11580156114d2573d6000803e3d6000fd5b5050505080866001600160a01b03167f165b17602125a20b222f9736f06d776e39507d7dc60ddef32ccc23ea2f1b50e5873360405161151292919061184c565b60405180910390a350505050505050565b600060208284031215611534578081fd5b813561153f81611922565b9392505050565b6000806000806080858703121561155b578283fd5b843561156681611922565b9350602085013561157681611922565b92506040850135915060608501356001600160401b0380821115611598578283fd5b818701915087601f8301126115ab578283fd5b8135818111156115bd576115bd61190c565b604051601f8201601f19908116603f011681019083821181831017156115e5576115e561190c565b816040528281528a60208487010111156115fd578586fd5b82602086016020830137918201602001949094529598949750929550505050565b60008060408385031215611630578182fd5b823561163b81611922565b946020939093013593505050565b60006020828403121561165a578081fd5b5035919050565b600080600060608486031215611675578283fd5b833561168081611922565b95602085013595506040909401359392505050565b600080600080608085870312156116aa578384fd5b84356116b581611922565b966020860135965060408601359560600135945092505050565b600080600080600060a086880312156116e6578081fd5b85356116f181611922565b97602087013597506040870135966060810135965060800135945092505050565b600060208284031215611723578081fd5b813561ffff8116811461153f578182fd5b6001600160a01b039384168152919092166020820152604081019190915260600190565b6020808252600d908201526c1b1bddc81c1c9a58d948189a59609a1b604082015260600190565b6020808252818101527f4f776e61626c653a2063616c6c6572206973206e6f7420746865206f776e6572604082015260600190565b6020808252600e908201526d21b0b731b2b632b21037b93232b960911b604082015260600190565b6020808252600d908201526c1058d8d95cdcc819195b9a5959609a1b604082015260600190565b6020808252600c908201526b105b1c9958591e481cdbdb1960a21b604082015260600190565b60208082526009908201526824ba13b99037bb32b960b91b604082015260600190565b9182526001600160a01b0316602082015260400190565b9384526001600160a01b03928316602085015291166040830152606082015260800190565b6000821982111561189b5761189b6118f6565b500190565b6000826118bb57634e487b7160e01b81526012600452602481fd5b500490565b60008160001904831182151516156118da576118da6118f6565b500290565b6000828210156118f1576118f16118f6565b500390565b634e487b7160e01b600052601160045260246000fd5b634e487b7160e01b600052604160045260246000fd5b6001600160a01b038116811461193757600080fd5b5056fe37a6d1163573be2522695f96cbee3037bf297187c0378e8903ac1ae0192f699f8be0079c531659141344cd1fd0a4f28419497f9722a3daafe3b4186f6b6457e0a26469706673582212207a10b2e4531cd4840b0b5a98a95494e9cf940283141caae8286d99aae0be825364736f6c63430008030033",
  "linkReferences": {},
  "deployedLinkReferences": {}
}