{
  "_format": "hh-sol-artifact-1",
  "contractName": "AnconNFT",
  "sourceName": "contracts/AnconNFT.sol",
  "abi": [
    {
      "inputs": [
        {
          "internalType": "string",
          "name": "name",
          "type": "string"
        },
        {
          "internalType": "string",
          "name": "symbol",
          "type": "string"
        },
        {
          "internalType": "address",
          "name": "tokenERC20",
          "type": "address"
        },
        {
          "internalType": "address",
          "name": "verifierAddr",
          "type": "address"
        }
      ],
      "stateMutability": "nonpayable",
      "type": "constructor"
    },
    {
      "anonymous": false,
      "inputs": [
        {
          "indexed": true,
          "internalType": "address",
          "name": "owner",
          "type": "address"
        },
        {
          "indexed": true,
          "internalType": "address",
          "name": "approved",
          "type": "address"
        },
        {
          "indexed": true,
          "internalType": "uint256",
          "name": "tokenId",
          "type": "uint256"
        }
      ],
      "name": "Approval",
      "type": "event"
    },
    {
      "anonymous": false,
      "inputs": [
        {
          "indexed": true,
          "internalType": "address",
          "name": "owner",
          "type": "address"
        },
        {
          "indexed": true,
          "internalType": "address",
          "name": "operator",
          "type": "address"
        },
        {
          "indexed": false,
          "internalType": "bool",
          "name": "approved",
          "type": "bool"
        }
      ],
      "name": "ApprovalForAll",
      "type": "event"
    },
    {
      "anonymous": false,
      "inputs": [
        {
          "indexed": true,
          "internalType": "address",
          "name": "previousOwner",
          "type": "address"
        },
        {
          "indexed": true,
          "internalType": "address",
          "name": "newOwner",
          "type": "address"
        }
      ],
      "name": "OwnershipTransferred",
      "type": "event"
    },
    {
      "anonymous": false,
      "inputs": [
        {
          "indexed": false,
          "internalType": "address",
          "name": "account",
          "type": "address"
        }
      ],
      "name": "Paused",
      "type": "event"
    },
    {
      "anonymous": false,
      "inputs": [
        {
          "indexed": true,
          "internalType": "address",
          "name": "from",
          "type": "address"
        },
        {
          "indexed": false,
          "internalType": "uint256",
          "name": "paidToContract",
          "type": "uint256"
        },
        {
          "indexed": false,
          "internalType": "uint256",
          "name": "paidToPaymentAddress",
          "type": "uint256"
        }
      ],
      "name": "ServiceFeePaid",
      "type": "event"
    },
    {
      "anonymous": false,
      "inputs": [
        {
          "indexed": true,
          "internalType": "address",
          "name": "from",
          "type": "address"
        },
        {
          "indexed": true,
          "internalType": "address",
          "name": "to",
          "type": "address"
        },
        {
          "indexed": true,
          "internalType": "uint256",
          "name": "tokenId",
          "type": "uint256"
        }
      ],
      "name": "Transfer",
      "type": "event"
    },
    {
      "anonymous": false,
      "inputs": [
        {
          "indexed": false,
          "internalType": "address",
          "name": "account",
          "type": "address"
        }
      ],
      "name": "Unpaused",
      "type": "event"
    },
    {
      "anonymous": false,
      "inputs": [
        {
          "indexed": true,
          "internalType": "address",
          "name": "paymentAddress",
          "type": "address"
        },
        {
          "indexed": false,
          "internalType": "uint256",
          "name": "amount",
          "type": "uint256"
        }
      ],
      "name": "Withdrawn",
      "type": "event"
    },
    {
      "inputs": [
        {
          "internalType": "address",
          "name": "to",
          "type": "address"
        },
        {
          "internalType": "uint256",
          "name": "tokenId",
          "type": "uint256"
        }
      ],
      "name": "approve",
      "outputs": [],
      "stateMutability": "nonpayable",
      "type": "function"
    },
    {
      "inputs": [
        {
          "internalType": "address",
          "name": "owner",
          "type": "address"
        }
      ],
      "name": "balanceOf",
      "outputs": [
        {
          "internalType": "uint256",
          "name": "",
          "type": "uint256"
        }
      ],
      "stateMutability": "view",
      "type": "function"
    },
    {
      "inputs": [
        {
          "internalType": "uint256",
          "name": "tokenId",
          "type": "uint256"
        }
      ],
      "name": "burn",
      "outputs": [],
      "stateMutability": "nonpayable",
      "type": "function"
    },
    {
      "inputs": [
        {
          "internalType": "uint256",
          "name": "tokenId",
          "type": "uint256"
        }
      ],
      "name": "getApproved",
      "outputs": [
        {
          "internalType": "address",
          "name": "",
          "type": "address"
        }
      ],
      "stateMutability": "view",
      "type": "function"
    },
    {
      "inputs": [
        {
          "internalType": "address",
          "name": "owner",
          "type": "address"
        },
        {
          "internalType": "address",
          "name": "operator",
          "type": "address"
        }
      ],
      "name": "isApprovedForAll",
      "outputs": [
        {
          "internalType": "bool",
          "name": "",
          "type": "bool"
        }
      ],
      "stateMutability": "view",
      "type": "function"
    },
    {
      "inputs": [
        {
          "internalType": "address",
          "name": "user",
          "type": "address"
        },
        {
          "internalType": "string",
          "name": "uri",
          "type": "string"
        }
      ],
      "name": "mint",
      "outputs": [
        {
          "internalType": "uint256",
          "name": "",
          "type": "uint256"
        }
      ],
      "stateMutability": "nonpayable",
      "type": "function"
    },
    {
      "inputs": [],
      "name": "name",
      "outputs": [
        {
          "internalType": "string",
          "name": "",
          "type": "string"
        }
      ],
      "stateMutability": "view",
      "type": "function"
    },
    {
      "inputs": [
        {
          "internalType": "address",
          "name": "operator",
          "type": "address"
        },
        {
          "internalType": "address",
          "name": "from",
          "type": "address"
        },
        {
          "internalType": "uint256",
          "name": "tokenId",
          "type": "uint256"
        },
        {
          "internalType": "bytes",
          "name": "data",
          "type": "bytes"
        }
      ],
      "name": "onERC721Received",
      "outputs": [
        {
          "internalType": "bytes4",
          "name": "",
          "type": "bytes4"
        }
      ],
      "stateMutability": "nonpayable",
      "type": "function"
    },
    {
      "inputs": [],
      "name": "owner",
      "outputs": [
        {
          "internalType": "address",
          "name": "",
          "type": "address"
        }
      ],
      "stateMutability": "view",
      "type": "function"
    },
    {
      "inputs": [
        {
          "internalType": "uint256",
          "name": "tokenId",
          "type": "uint256"
        }
      ],
      "name": "ownerOf",
      "outputs": [
        {
          "internalType": "address",
          "name": "",
          "type": "address"
        }
      ],
      "stateMutability": "view",
      "type": "function"
    },
    {
      "inputs": [],
      "name": "paused",
      "outputs": [
        {
          "internalType": "bool",
          "name": "",
          "type": "bool"
        }
      ],
      "stateMutability": "view",
      "type": "function"
    },
    {
      "inputs": [],
      "name": "renounceOwnership",
      "outputs": [],
      "stateMutability": "nonpayable",
      "type": "function"
    },
    {
      "inputs": [
        {
          "internalType": "address",
          "name": "from",
          "type": "address"
        },
        {
          "internalType": "address",
          "name": "to",
          "type": "address"
        },
        {
          "internalType": "uint256",
          "name": "tokenId",
          "type": "uint256"
        }
      ],
      "name": "safeTransferFrom",
      "outputs": [],
      "stateMutability": "nonpayable",
      "type": "function"
    },
    {
      "inputs": [
        {
          "internalType": "address",
          "name": "from",
          "type": "address"
        },
        {
          "internalType": "address",
          "name": "to",
          "type": "address"
        },
        {
          "internalType": "uint256",
          "name": "tokenId",
          "type": "uint256"
        },
        {
          "internalType": "bytes",
          "name": "_data",
          "type": "bytes"
        }
      ],
      "name": "safeTransferFrom",
      "outputs": [],
      "stateMutability": "nonpayable",
      "type": "function"
    },
    {
      "inputs": [],
      "name": "serviceFeeForContract",
      "outputs": [
        {
          "internalType": "uint256",
          "name": "",
          "type": "uint256"
        }
      ],
      "stateMutability": "view",
      "type": "function"
    },
    {
      "inputs": [],
      "name": "serviceFeeForPaymentAddress",
      "outputs": [
        {
          "internalType": "uint256",
          "name": "",
          "type": "uint256"
        }
      ],
      "stateMutability": "view",
      "type": "function"
    },
    {
      "inputs": [
        {
          "internalType": "address",
          "name": "operator",
          "type": "address"
        },
        {
          "internalType": "bool",
          "name": "approved",
          "type": "bool"
        }
      ],
      "name": "setApprovalForAll",
      "outputs": [],
      "stateMutability": "nonpayable",
      "type": "function"
    },
    {
      "inputs": [
        {
          "internalType": "uint256",
          "name": "_fee",
          "type": "uint256"
        }
      ],
      "name": "setServiceFeeForContract",
      "outputs": [],
      "stateMutability": "nonpayable",
      "type": "function"
    },
    {
      "inputs": [
        {
          "internalType": "uint256",
          "name": "_fee",
          "type": "uint256"
        }
      ],
      "name": "setServiceFeeForPaymentAddress",
      "outputs": [],
      "stateMutability": "nonpayable",
      "type": "function"
    },
    {
      "inputs": [],
      "name": "stablecoin",
      "outputs": [
        {
          "internalType": "contract IERC20",
          "name": "",
          "type": "address"
        }
      ],
      "stateMutability": "view",
      "type": "function"
    },
    {
      "inputs": [
        {
          "internalType": "bytes4",
          "name": "interfaceId",
          "type": "bytes4"
        }
      ],
      "name": "supportsInterface",
      "outputs": [
        {
          "internalType": "bool",
          "name": "",
          "type": "bool"
        }
      ],
      "stateMutability": "view",
      "type": "function"
    },
    {
      "inputs": [],
      "name": "symbol",
      "outputs": [
        {
          "internalType": "string",
          "name": "",
          "type": "string"
        }
      ],
      "stateMutability": "view",
      "type": "function"
    },
    {
      "inputs": [
        {
          "internalType": "uint256",
          "name": "tokenId",
          "type": "uint256"
        }
      ],
      "name": "tokenURI",
      "outputs": [
        {
          "internalType": "string",
          "name": "",
          "type": "string"
        }
      ],
      "stateMutability": "view",
      "type": "function"
    },
    {
      "inputs": [
        {
          "internalType": "address",
          "name": "from",
          "type": "address"
        },
        {
          "internalType": "address",
          "name": "to",
          "type": "address"
        },
        {
          "internalType": "uint256",
          "name": "tokenId",
          "type": "uint256"
        }
      ],
      "name": "transferFrom",
      "outputs": [],
      "stateMutability": "nonpayable",
      "type": "function"
    },
    {
      "inputs": [
        {
          "internalType": "address",
          "name": "newOwner",
          "type": "address"
        }
      ],
      "name": "transferOwnership",
      "outputs": [],
      "stateMutability": "nonpayable",
      "type": "function"
    },
    {
      "inputs": [],
      "name": "verifierAddress",
      "outputs": [
        {
          "internalType": "address",
          "name": "",
          "type": "address"
        }
      ],
      "stateMutability": "view",
      "type": "function"
    },
    {
      "inputs": [
        {
          "internalType": "address payable",
          "name": "payee",
          "type": "address"
        }
      ],
      "name": "withdrawBalance",
      "outputs": [],
      "stateMutability": "nonpayable",
      "type": "function"
    }
  ],
  "bytecode": "0x60806040526000600c556000600d553480156200001b57600080fd5b5060405162002595380380620025958339810160408190526200003e9162000268565b83518490849062000057906000906020850190620000f2565b5080516200006d906001906020840190620000f2565b50506006805460ff1916905550600880546001600160a01b0319163390811790915560405181906000907f8be0079c531659141344cd1fd0a4f28419497f9722a3daafe3b4186f6b6457e0908290a350600a80546001600160a01b039384166001600160a01b031991821617909155600b805492909316911617905550620003479050565b8280546200010090620002f4565b90600052602060002090601f0160209004810192826200012457600085556200016f565b82601f106200013f57805160ff19168380011785556200016f565b828001600101855582156200016f579182015b828111156200016f57825182559160200191906001019062000152565b506200017d92915062000181565b5090565b5b808211156200017d576000815560010162000182565b80516001600160a01b0381168114620001b057600080fd5b919050565b600082601f830112620001c6578081fd5b81516001600160401b0380821115620001e357620001e362000331565b604051601f8301601f19908116603f011681019082821181831017156200020e576200020e62000331565b816040528381526020925086838588010111156200022a578485fd5b8491505b838210156200024d57858201830151818301840152908201906200022e565b838211156200025e57848385830101525b9695505050505050565b600080600080608085870312156200027e578384fd5b84516001600160401b038082111562000295578586fd5b620002a388838901620001b5565b95506020870151915080821115620002b9578485fd5b50620002c887828801620001b5565b935050620002d96040860162000198565b9150620002e96060860162000198565b905092959194509250565b600181811c908216806200030957607f821691505b602082108114156200032b57634e487b7160e01b600052602260045260246000fd5b50919050565b634e487b7160e01b600052604160045260246000fd5b61223e80620003576000396000f3fe608060405234801561001057600080fd5b50600436106101495760003560e01c806301ffc9a71461014e57806306fdde0314610176578063081812fc1461018b578063095ea7b3146101ab578063150b7a02146101c057806318bdffbb146101ec57806323b872dd146101ff5780632c078e8d1461021257806342842e0e1461022557806342966c68146102385780635c975abb1461024b5780636352211e1461025657806370a0823114610269578063715018a61461028a578063756af45f146102925780638da5cb5b146102a557806395d89b41146102ad578063a22cb465146102b5578063b86be2ca146102c8578063b88d4fde146102db578063c014b9da146102ee578063c87b56dd146102f7578063d0def5211461030a578063e53ae1021461031d578063e985e9c514610326578063e9cbd82214610339578063f2fde38b1461034c575b600080fd5b61016161015c366004611e33565b61035f565b60405190151581526020015b60405180910390f35b61017e6103b3565b60405161016d9190611f89565b61019e610199366004611ead565b610445565b60405161016d9190611f38565b6101be6101b9366004611dec565b6104d2565b005b6101d36101ce366004611c5d565b6105e3565b6040516001600160e01b0319909116815260200161016d565b600b5461019e906001600160a01b031681565b6101be61020d366004611c1d565b610711565b6101be610220366004611ead565b610743565b6101be610233366004611c1d565b610777565b6101be610246366004611ead565b610792565b60065460ff16610161565b61019e610264366004611ead565b61080c565b61027c610277366004611bc9565b610883565b60405190815260200161016d565b6101be61090a565b6101be6102a0366004611bc9565b610971565b61019e610b33565b61017e610b42565b6101be6102c3366004611d72565b610b51565b6101be6102d6366004611ead565b610c1f565b6101be6102e9366004611cf6565b610c53565b61027c600c5481565b61017e610305366004611ead565b610c8b565b61027c610318366004611d9f565b610c96565b61027c600d5481565b610161610334366004611be5565b610cce565b600a5461019e906001600160a01b031681565b6101be61035a366004611bc9565b610cfc565b60006001600160e01b031982166380ac58cd60e01b148061039057506001600160e01b03198216635b5e139f60e01b145b806103ab57506301ffc9a760e01b6001600160e01b03198316145b90505b919050565b6060600080546103c2906120e3565b80601f01602080910402602001604051908101604052809291908181526020018280546103ee906120e3565b801561043b5780601f106104105761010080835404028352916020019161043b565b820191906000526020600020905b81548152906001019060200180831161041e57829003601f168201915b5050505050905090565b600061045082610dda565b6104b65760405162461bcd60e51b815260206004820152602c60248201527f4552433732313a20617070726f76656420717565727920666f72206e6f6e657860448201526b34b9ba32b73a103a37b5b2b760a11b60648201526084015b60405180910390fd5b506000908152600460205260409020546001600160a01b031690565b60006104dd8261080c565b9050806001600160a01b0316836001600160a01b0316141561054b5760405162461bcd60e51b815260206004820152602160248201527f4552433732313a20617070726f76616c20746f2063757272656e74206f776e656044820152603960f91b60648201526084016104ad565b336001600160a01b038216148061056757506105678133610334565b6105d45760405162461bcd60e51b815260206004820152603860248201527f4552433732313a20617070726f76652063616c6c6572206973206e6f74206f776044820152771b995c881b9bdc88185c1c1c9bdd995908199bdc88185b1b60421b60648201526084016104ad565b6105de8383610df7565b505050565b600b546000906001600160a01b038781169116146106365760405162461bcd60e51b815260206004820152601060248201526f24b73b30b634b2103b32b934b334b2b960811b60448201526064016104ad565b60006106418561080c565b9050856001600160a01b0316816001600160a01b03161461069d5760405162461bcd60e51b815260206004820152601660248201527524b73b30b634b2103a37b5b2b71034b21037bbb732b960511b60448201526064016104ad565b6000806106ac85870187611e6b565b9150915081516000146106f25760405162461bcd60e51b815260206004820152600e60248201526d456d707479206d6574616461746160901b60448201526064016104ad565b6106fc8183610e65565b50630a85bd0160e11b98975050505050505050565b61071c335b82610ef0565b6107385760405162461bcd60e51b81526004016104ad90612023565b6105de838383610fba565b3361074c610b33565b6001600160a01b0316146107725760405162461bcd60e51b81526004016104ad90611fee565b600d55565b6105de83838360405180602001604052806000815250610c53565b61079b33610716565b6108005760405162461bcd60e51b815260206004820152603060248201527f4552433732314275726e61626c653a2063616c6c6572206973206e6f74206f7760448201526f1b995c881b9bdc88185c1c1c9bdd995960821b60648201526084016104ad565b61080981611153565b50565b6000818152600260205260408120546001600160a01b0316806103ab5760405162461bcd60e51b815260206004820152602960248201527f4552433732313a206f776e657220717565727920666f72206e6f6e657869737460448201526832b73a103a37b5b2b760b91b60648201526084016104ad565b60006001600160a01b0382166108ee5760405162461bcd60e51b815260206004820152602a60248201527f4552433732313a2062616c616e636520717565727920666f7220746865207a65604482015269726f206164647265737360b01b60648201526084016104ad565b506001600160a01b031660009081526003602052604090205490565b33610913610b33565b6001600160a01b0316146109395760405162461bcd60e51b81526004016104ad90611fee565b6008546040516000916001600160a01b0316906000805160206121c9833981519152908390a3600880546001600160a01b0319169055565b3361097a610b33565b6001600160a01b0316146109a05760405162461bcd60e51b81526004016104ad90611fee565b600a546040516370a0823160e01b81526000916001600160a01b0316906370a08231906109d1903090600401611f38565b60206040518083038186803b1580156109e957600080fd5b505afa1580156109fd573d6000803e3d6000fd5b505050506040513d601f19601f82011682018060405250810190610a219190611ec5565b600a5460405163a9059cbb60e01b81526001600160a01b0385811660048301526024820184905292935091169063a9059cbb90604401602060405180830381600087803b158015610a7157600080fd5b505af1158015610a85573d6000803e3d6000fd5b505050506040513d601f19601f82011682018060405250810190610aa99190611e17565b610aec5760405162461bcd60e51b81526020600482015260146024820152731611158e88151c985b9cd9995c8819985a5b195960621b60448201526064016104ad565b816001600160a01b03167f7084f5476618d8e60b11ef0d7d3f06914655adb8793e28ff7f018d4c76d505d582604051610b2791815260200190565b60405180910390a25050565b6008546001600160a01b031690565b6060600180546103c2906120e3565b6001600160a01b038216331415610ba65760405162461bcd60e51b815260206004820152601960248201527822a9219b99189d1030b8383937bb32903a379031b0b63632b960391b60448201526064016104ad565b3360008181526005602090815260408083206001600160a01b0387168085529252909120805460ff1916841515179055906001600160a01b03167f17307eab39ab6107e8899845ad3d59bd9653f200f220920489ca2b5937696c3183604051610c13911515815260200190565b60405180910390a35050565b33610c28610b33565b6001600160a01b031614610c4e5760405162461bcd60e51b81526004016104ad90611fee565b600c55565b610c5d3383610ef0565b610c795760405162461bcd60e51b81526004016104ad90612023565b610c858484848461115c565b50505050565b60606103ab8261118f565b6000610ca6600980546001019055565b6000610cb160095490565b9050610cbd84826112ff565b610cc78184610e65565b9392505050565b6001600160a01b03918216600090815260056020908152604080832093909416825291909152205460ff1690565b33610d05610b33565b6001600160a01b031614610d2b5760405162461bcd60e51b81526004016104ad90611fee565b6001600160a01b038116610d905760405162461bcd60e51b815260206004820152602660248201527f4f776e61626c653a206e6577206f776e657220697320746865207a65726f206160448201526564647265737360d01b60648201526084016104ad565b6008546040516001600160a01b038084169216906000805160206121c983398151915290600090a3600880546001600160a01b0319166001600160a01b0392909216919091179055565b6000908152600260205260409020546001600160a01b0316151590565b600081815260046020526040902080546001600160a01b0319166001600160a01b0384169081179091558190610e2c8261080c565b6001600160a01b03167f8c5be1e5ebec7d5bd14f71427d1e84f3dd0314c0f7b2291e5b200ac8c7c3b92560405160405180910390a45050565b610e6e82610dda565b610ed15760405162461bcd60e51b815260206004820152602e60248201527f45524337323155524953746f726167653a2055524920736574206f66206e6f6e60448201526d32bc34b9ba32b73a103a37b5b2b760911b60648201526084016104ad565b600082815260076020908152604090912082516105de92840190611a64565b6000610efb82610dda565b610f5c5760405162461bcd60e51b815260206004820152602c60248201527f4552433732313a206f70657261746f7220717565727920666f72206e6f6e657860448201526b34b9ba32b73a103a37b5b2b760a11b60648201526084016104ad565b6000610f678361080c565b9050806001600160a01b0316846001600160a01b03161480610fa25750836001600160a01b0316610f9784610445565b6001600160a01b0316145b80610fb25750610fb28185610cce565b949350505050565b826001600160a01b0316610fcd8261080c565b6001600160a01b0316146110355760405162461bcd60e51b815260206004820152602960248201527f4552433732313a207472616e73666572206f6620746f6b656e2074686174206960448201526839903737ba1037bbb760b91b60648201526084016104ad565b6001600160a01b0382166110975760405162461bcd60e51b8152602060048201526024808201527f4552433732313a207472616e7366657220746f20746865207a65726f206164646044820152637265737360e01b60648201526084016104ad565b6110a283838361131d565b6110ad600082610df7565b6001600160a01b03831660009081526003602052604081208054600192906110d69084906120a0565b90915550506001600160a01b0382166000908152600360205260408120805460019290611104908490612074565b909155505060008181526002602052604080822080546001600160a01b0319166001600160a01b0386811691821790925591518493918716916000805160206121e983398151915291a4505050565b61080981611392565b611167848484610fba565b611173848484846113d2565b610c855760405162461bcd60e51b81526004016104ad90611f9c565b606061119a82610dda565b6112005760405162461bcd60e51b815260206004820152603160248201527f45524337323155524953746f726167653a2055524920717565727920666f72206044820152703737b732bc34b9ba32b73a103a37b5b2b760791b60648201526084016104ad565b60008281526007602052604081208054611219906120e3565b80601f0160208091040260200160405190810160405280929190818152602001828054611245906120e3565b80156112925780601f1061126757610100808354040283529160200191611292565b820191906000526020600020905b81548152906001019060200180831161127557829003601f168201915b5050505050905060006112b060408051602081019091526000815290565b90508051600014156112c4575090506103ae565b8151156112f65780826040516020016112de929190611f09565b604051602081830303815290604052925050506103ae565b610fb2846114df565b6113198282604051806020016040528060008152506115b6565b5050565b60065460ff16156113705760405162461bcd60e51b815260206004820152601e60248201527f5844563a20546f6b656e20657865637574696f6e20697320706175736564000060448201526064016104ad565b6001600160a01b03831661138757611387336115e9565b6105de838383611722565b61139b81611789565b600081815260076020526040902080546113b4906120e3565b15905061080957600081815260076020526040812061080991611ae8565b60006001600160a01b0384163b156114d457604051630a85bd0160e11b81526001600160a01b0385169063150b7a0290611416903390899088908890600401611f4c565b602060405180830381600087803b15801561143057600080fd5b505af1925050508015611460575060408051601f3d908101601f1916820190925261145d91810190611e4f565b60015b6114ba573d80801561148e576040519150601f19603f3d011682016040523d82523d6000602084013e611493565b606091505b5080516114b25760405162461bcd60e51b81526004016104ad90611f9c565b805181602001fd5b6001600160e01b031916630a85bd0160e11b149050610fb2565b506001949350505050565b60606114ea82610dda565b61154e5760405162461bcd60e51b815260206004820152602f60248201527f4552433732314d657461646174613a2055524920717565727920666f72206e6f60448201526e3732bc34b9ba32b73a103a37b5b2b760891b60648201526084016104ad565b600061156560408051602081019091526000815290565b905060008151116115855760405180602001604052806000815250610cc7565b8061158f8461181e565b6040516020016115a0929190611f09565b6040516020818303038152906040529392505050565b6115c08383611938565b6115cd60008484846113d2565b6105de5760405162461bcd60e51b81526004016104ad90611f9c565b600a54600d546040516323b872dd60e01b81526001600160a01b03848116600483015230602483015260448201929092529116906323b872dd90606401602060405180830381600087803b15801561164057600080fd5b505af1158015611654573d6000803e3d6000fd5b505050506040513d601f19601f820116820180604052508101906116789190611e17565b6116cf5760405162461bcd60e51b815260206004820152602260248201527f5844563a205472616e73666572206661696c656420666f7220726563697069656044820152611b9d60f21b60648201526084016104ad565b806001600160a01b03167fff781da90c6b849a72bafc99aedde3dff0b039f697f31c21e96d587accee2760600d54600c54604051611717929190918252602082015260400190565b60405180910390a250565b60065460ff16156105de5760405162461bcd60e51b815260206004820152602b60248201527f4552433732315061757361626c653a20746f6b656e207472616e73666572207760448201526a1a1a5b19481c185d5cd95960aa1b60648201526084016104ad565b60006117948261080c565b90506117a28160008461131d565b6117ad600083610df7565b6001600160a01b03811660009081526003602052604081208054600192906117d69084906120a0565b909155505060008281526002602052604080822080546001600160a01b0319169055518391906001600160a01b038416906000805160206121e9833981519152908390a45050565b60608161184357506040805180820190915260018152600360fc1b60208201526103ae565b8160005b811561186d57806118578161211e565b91506118669050600a8361208c565b9150611847565b6000816001600160401b0381111561189557634e487b7160e01b600052604160045260246000fd5b6040519080825280601f01601f1916602001820160405280156118bf576020820181803683370190505b5090505b8415610fb2576118d46001836120a0565b91506118e1600a86612139565b6118ec906030612074565b60f81b81838151811061190f57634e487b7160e01b600052603260045260246000fd5b60200101906001600160f81b031916908160001a905350611931600a8661208c565b94506118c3565b6001600160a01b03821661198e5760405162461bcd60e51b815260206004820181905260248201527f4552433732313a206d696e7420746f20746865207a65726f206164647265737360448201526064016104ad565b61199781610dda565b156119e35760405162461bcd60e51b815260206004820152601c60248201527b115490cdcc8c4e881d1bdad95b88185b1c9958591e481b5a5b9d195960221b60448201526064016104ad565b6119ef6000838361131d565b6001600160a01b0382166000908152600360205260408120805460019290611a18908490612074565b909155505060008181526002602052604080822080546001600160a01b0319166001600160a01b03861690811790915590518392906000805160206121e9833981519152908290a45050565b828054611a70906120e3565b90600052602060002090601f016020900481019282611a925760008555611ad8565b82601f10611aab57805160ff1916838001178555611ad8565b82800160010185558215611ad8579182015b82811115611ad8578251825591602001919060010190611abd565b50611ae4929150611b20565b5090565b508054611af4906120e3565b6000825580601f10611b065750610809565b601f01602090049060005260206000209081019061080991905b5b80821115611ae45760008155600101611b21565b60006001600160401b0380841115611b4f57611b4f612179565b604051601f8501601f19908116603f01168101908282118183101715611b7757611b77612179565b81604052809350858152868686011115611b9057600080fd5b858560208301376000602087830101525050509392505050565b600082601f830112611bba578081fd5b610cc783833560208501611b35565b600060208284031215611bda578081fd5b8135610cc78161218f565b60008060408385031215611bf7578081fd5b8235611c028161218f565b91506020830135611c128161218f565b809150509250929050565b600080600060608486031215611c31578081fd5b8335611c3c8161218f565b92506020840135611c4c8161218f565b929592945050506040919091013590565b600080600080600060808688031215611c74578081fd5b8535611c7f8161218f565b94506020860135611c8f8161218f565b93506040860135925060608601356001600160401b0380821115611cb1578283fd5b818801915088601f830112611cc4578283fd5b813581811115611cd2578384fd5b896020828501011115611ce3578384fd5b9699959850939650602001949392505050565b60008060008060808587031215611d0b578384fd5b8435611d168161218f565b93506020850135611d268161218f565b92506040850135915060608501356001600160401b03811115611d47578182fd5b8501601f81018713611d57578182fd5b611d6687823560208401611b35565b91505092959194509250565b60008060408385031215611d84578182fd5b8235611d8f8161218f565b91506020830135611c12816121a4565b60008060408385031215611db1578182fd5b8235611dbc8161218f565b915060208301356001600160401b03811115611dd6578182fd5b611de285828601611baa565b9150509250929050565b60008060408385031215611dfe578182fd5b8235611e098161218f565b946020939093013593505050565b600060208284031215611e28578081fd5b8151610cc7816121a4565b600060208284031215611e44578081fd5b8135610cc7816121b2565b600060208284031215611e60578081fd5b8151610cc7816121b2565b60008060408385031215611e7d578182fd5b82356001600160401b03811115611e92578283fd5b611e9e85828601611baa565b95602094909401359450505050565b600060208284031215611ebe578081fd5b5035919050565b600060208284031215611ed6578081fd5b5051919050565b60008151808452611ef58160208601602086016120b7565b601f01601f19169290920160200192915050565b60008351611f1b8184602088016120b7565b835190830190611f2f8183602088016120b7565b01949350505050565b6001600160a01b0391909116815260200190565b6001600160a01b0385811682528416602082015260408101839052608060608201819052600090611f7f90830184611edd565b9695505050505050565b600060208252610cc76020830184611edd565b60208082526032908201527f4552433732313a207472616e7366657220746f206e6f6e20455243373231526560408201527131b2b4bb32b91034b6b83632b6b2b73a32b960711b606082015260800190565b6020808252818101527f4f776e61626c653a2063616c6c6572206973206e6f7420746865206f776e6572604082015260600190565b60208082526031908201527f4552433732313a207472616e736665722063616c6c6572206973206e6f74206f6040820152701ddb995c881b9bdc88185c1c1c9bdd9959607a1b606082015260800190565b600082198211156120875761208761214d565b500190565b60008261209b5761209b612163565b500490565b6000828210156120b2576120b261214d565b500390565b60005b838110156120d25781810151838201526020016120ba565b83811115610c855750506000910152565b600181811c908216806120f757607f821691505b6020821081141561211857634e487b7160e01b600052602260045260246000fd5b50919050565b60006000198214156121325761213261214d565b5060010190565b60008261214857612148612163565b500690565b634e487b7160e01b600052601160045260246000fd5b634e487b7160e01b600052601260045260246000fd5b634e487b7160e01b600052604160045260246000fd5b6001600160a01b038116811461080957600080fd5b801515811461080957600080fd5b6001600160e01b03198116811461080957600080fdfe8be0079c531659141344cd1fd0a4f28419497f9722a3daafe3b4186f6b6457e0ddf252ad1be2c89b69c2b068fc378daa952ba7f163c4a11628f55a4df523b3efa2646970667358221220b279d4b67b913c0ee03969d3d6cdca946b8ac0a2d473280423a19eba388b7a2e64736f6c63430008030033",
  "linkReferences": {},
  "deployedLinkReferences": {}
}